S011000073746F7077617463682E7372656336
S11300000C942A000C9447000C9447000C9447006D
S11300100C9447000C9447000C9447000C94470040
S11300200C9447000C9447000C9447000C948102F4
S11300300C9447000C9447000C9447000C94470020
S11300400C9447000C9447000C9447000C94470010
S11300500C94470011241FBECFE5D8E0DEBFCDBF0E
S113006010E0A0E6B0E0E2EDF6E002C005900D92EB
S1130070A436B107D9F720E0A4E6B0E001C01D9290
S1130080AC36B207E1F70E9469020C9467030C9442
S11300900000423008F06DC04130A1F5813089F094
S11300A028F08230C9F0833011F108952AB381E039
S11300B090E002C0880F991F6A95E2F7822B8ABBF1
S11300C0089527B381E090E002C0880F991F6A95D4
S11300D0E2F7822B87BB089524B381E090E002C04D
S11300E0880F991F6A95E2F7822B84BB089521B388
S11300F081E090E002C0880F991F6A95E2F7822B95
S113010081BB0895813091F028F08230D9F083309A
S113011029F108952AB381E090E002C0880F991F65
S11301206A95E2F7809582238ABB089527B381E01C
S113013090E002C0880F991F6A95E2F780958223A8
S113014087BB089524B381E090E002C0880F991F13
S11301506A95E2F78095822384BB089521B381E0F8
S113016090E002C0880F991F6A95E2F78095822378
S113017081BB0895423008F06DC04130A1F5813053
S113018089F028F08230C9F0833011F108952BB33F
S113019081E090E002C0880F991F6A95E2F7822BF4
S11301A08BBB089528B381E090E002C0880F991FAB
S11301B06A95E2F7822B88BB089525B381E090E02D
S11301C002C0880F991F6A95E2F7822B85BB0895B8
S11301D022B381E090E002C0880F991F6A95E2F78C
S11301E0822B82BB0895813091F028F08230D9F0BF
S11301F0833029F108952BB381E090E002C0880F89
S1130200991F6A95E2F7809582238BBB089528B3E2
S113021081E090E002C0880F991F6A95E2F780950B
S1130220822388BB089525B381E090E002C0880F43
S1130230991F6A95E2F78095822385BB089522B3BE
S113024081E090E002C0880F991F6A95E2F78095DB
S1130250822382BB08956F3FA1F4813049F028F0D6
S1130260823049F0833051F008958FEF8ABB0895AE
S11302708FEF87BB08958FEF84BB08958FEF81BB09
S11302800895813041F028F0823039F0833039F01C
S113029008951ABA089517BA089514BA089511BAA8
S11302A008958FB780688FBF08950F931F93CF93DE
S11302B0DF9300D000D0CDB7DEB7082F84E0898368
S11302C085E08A8386E08B8387E08C8310E014C00A
S11302D0402F50E0012E02C0559547950A94E2F74D
S11302E04170E1E0F0E0EC0FFD1FE10FF11D6081D2
S11302F080E00E94BA001F5F143050F30F900F90FB
S11303000F900F90DF91CF911F910F91089541E0CD
S113031063E081E00E94BA008FE39FE10197F1F767
S113032000C0000040E063E081E00E94BA0008954C
S1130330CF93C82F40E061E081E00E94BA0040E022
S113034062E081E00E94BA008C2F82958F700E9437
S113035055010E9487018C2F0E9455010E9487013C
S1130360CF910895CF93C82F41E061E081E00E94CE
S1130370BA0040E062E081E00E94BA008C2F8295CE
S11303808F700E9455010E9487018C2F0E94550195
S11303900E948701CF9108952FEF83EF91E02150C0
S11303A080409040E1F700C0000082E00E945501C7
S11303B00E94870182E00E9455010E94870188E023
S11303C00E9455010E9487018CE00E94980181E0FF
S11303D00E94980108950F931F93CF938C01C0E05E
S11303E003C00E94B201CF5FF801EC0FF11D8081C0
S11303F08111F7CFCF911F910F910895662329F0B2
S1130400613011F4805C01C080E080680E94980132
S113041008951F93CF93DF93CDB7DEB72A970FB616
S1130420F894DEBF0FBECDBFAC01892BA1F580E3EC
S11304300E94B20144C09A01ADECBCEC0E94580386
S11304409695879596958795969587959C01220F05
S1130450331F880F991F880F991F880F991F820FC8
S1130460931F9A01281B390BC901E1E0F0E0EC0F5E
S1130470FD1FE10FF11D17FDFA95805D80839A0140
S11304800E945803AC015695479556954795569545
S113049047951F5F01C010E04115510561F61150E9
S11304A00CC0E1E0F0E0EC0FFD1FE10FF11D17FDC2
S11304B0FA9580810E94B2011150112394F72A9673
S11304C00FB6F894DEBF0FBECDBFDF91CF911F9161
S11304D008956FEF80E00E942B0141E061E081E02C
S11304E00E94490041E062E081E00E94490041E04D
S11304F063E081E00E9449000E94CC010E944C0309
S1130500FFCF1F920F920FB60F9211242F933F9398
S11305104F935F936F937F938F939F93AF93BF9307
S1130520EF93FF9380916A0090916B0001969093F2
S11305306B0080936A000A9709F093C060E083E03F
S11305400E94FE0180E090E00E9409028091680010
S1130550909169000E94090282E690E00E94EB01FA
S113056080E090E00E94090260E0809161000E94B6
S1130570FE0180916600909167000E94090282E664
S113058090E00E94EB0180E090E00E94090260E0AC
S1130590809160000E94FE0180916400909165004A
S11305A00E940902809164009091650001969093E5
S11305B06500809364008A3091050CF452C029E0F0
S11305C020936000CD9709F04CC010926500109202
S11305D0640060E089E00E94FE0180E090E00E94F7
S11305E009028091600060E08F5F0E94FE0180E05C
S11305F090E00E9409028091660090916700019644
S113060090936700809366008A3091053CF126E060
S113061020936100CC9711F5109267001092660048
S113062060E086E00E94FE0180E090E00E94090202
S11306308091610060E08F5F0E94FE0180E090E0A5
S11306400E9409028091680090916900019690933C
S113065069008093680087E0809361008AE080935A
S1130660600080916A0090916B00449721F410928D
S11306706B0010926A00FF91EF91BF91AF919F912F
S11306808F917F916F915F914F913F912F910F9037
S11306900FBE0F901F90189583B7887F83BF83B7D1
S11306A0836083BF89B7816089BF0E945101089527
S11306B0A29FB001B39FC001A39F700D811D11249F
S11306C0911DB29F700D811D1124911D0895F89400
S10506D0FFCF56
S10706D20A073A00D5
S9030000FC
